{
  "contractName": "RetailerRole",
  "abi": [
    {
      "inputs": [],
      "payable": false,
      "stateMutability": "nonpayable",
      "type": "constructor"
    },
    {
      "constant": true,
      "inputs": [
        {
          "name": "account",
          "type": "address"
        }
      ],
      "name": "isRetailer",
      "outputs": [
        {
          "name": "",
          "type": "bool"
        }
      ],
      "payable": false,
      "stateMutability": "view",
      "type": "function"
    },
    {
      "constant": false,
      "inputs": [
        {
          "name": "account",
          "type": "address"
        }
      ],
      "name": "addRetailer",
      "outputs": [],
      "payable": false,
      "stateMutability": "nonpayable",
      "type": "function"
    },
    {
      "constant": false,
      "inputs": [],
      "name": "renounceRetailer",
      "outputs": [],
      "payable": false,
      "stateMutability": "nonpayable",
      "type": "function"
    }
  ],
  "bytecode": "0x608060405234801561001057600080fd5b50610149806100206000396000f300608060405260043610610057576000357c0100000000000000000000000000000000000000000000000000000000900463ffffffff1680635da09b881461005c5780638ec4f505146100b7578063db0e6a2f146100fa575b600080fd5b34801561006857600080fd5b5061009d600480360381019080803573ffffffffffffffffffffffffffffffffffffffff169060200190929190505050610111565b604051808215151515815260200191505060405180910390f35b3480156100c357600080fd5b506100f8600480360381019080803573ffffffffffffffffffffffffffffffffffffffff169060200190929190505050610118565b005b34801561010657600080fd5b5061010f61011b565b005b6000919050565b50565b5600a165627a7a723058207d8146951c6a640fe351eaec135d114dec220cbd343f3c4b01444abb7228ed910029",
  "source": "pragma solidity ^0.4.24;\r\n\r\n// Import the library 'Roles'\r\nimport \"./Roles.sol\";\r\n\r\n// Define a contract 'RetailerRole' to manage this role - add, remove, check\r\ncontract RetailerRole {\r\n\r\n  // Define 2 events, one for Adding, and other for Removing\r\n  \r\n  // Define a struct 'retailers' by inheriting from 'Roles' library, struct Role\r\n\r\n  // In the constructor make the address that deploys this contract the 1st retailer\r\n  constructor() public {\r\n    \r\n  }\r\n\r\n  // Define a modifier that checks to see if msg.sender has the appropriate role\r\n  modifier onlyRetailer() {\r\n    \r\n    _;\r\n  }\r\n\r\n  // Define a function 'isRetailer' to check this role\r\n  function isRetailer(address account) public view returns (bool) {\r\n    \r\n  }\r\n\r\n  // Define a function 'addRetailer' that adds this role\r\n  function addRetailer(address account) public onlyRetailer {\r\n    \r\n  }\r\n\r\n  // Define a function 'renounceRetailer' to renounce this role\r\n  function renounceRetailer() public {\r\n    \r\n  }\r\n\r\n  // Define an internal function '_addRetailer' to add this role, called by 'addRetailer'\r\n  function _addRetailer(address account) internal {\r\n    \r\n  }\r\n\r\n  // Define an internal function '_removeRetailer' to remove this role, called by 'removeRetailer'\r\n  function _removeRetailer(address account) internal {\r\n    \r\n  }\r\n}",
  "sourcePath": "C:\\Users\\Darra\\Desktop\\udacity\\P3\\Supply\\project-6\\contracts\\coffeeaccesscontrol\\RetailerRole.sol",
  "compiler": {
    "name": "solc",
    "version": "0.4.24+commit.e67f0147.Emscripten.clang"
  },
  "schemaVersion": "2.0.1",
  "updatedAt": "2022-02-13T17:40:18.583Z"
}